{
  "_format": "hh-sol-artifact-1",
  "contractName": "gasChallenge",
  "sourceName": "contracts/gasChallenge.sol",
  "abi": [
    {
      "inputs": [],
      "name": "getSumOfArray",
      "outputs": [
        {
          "internalType": "uint256",
          "name": "",
          "type": "uint256"
        }
      ],
      "stateMutability": "view",
      "type": "function"
    },
    {
      "inputs": [],
      "name": "notOptimizedFunction",
      "outputs": [],
      "stateMutability": "nonpayable",
      "type": "function"
    },
    {
      "inputs": [],
      "name": "optimizedFunction",
      "outputs": [],
      "stateMutability": "nonpayable",
      "type": "function"
    }
  ],
  "bytecode": "0x6080604052604051806101400160405280600160ff168152602001600260ff168152602001600360ff168152602001600460ff168152602001600560ff168152602001600660ff168152602001600760ff168152602001600860ff168152602001600960ff168152602001600a60ff16815250600090600a610082929190610095565b5034801561008f57600080fd5b5061014c565b82600a601f0160209004810192821561011e5791602002820160005b838211156100ef57835183826101000a81548160ff021916908360ff16021790555092602001926001016020816000010492830192600103026100b1565b801561011c5782816101000a81549060ff02191690556001016020816000010492830192600103026100ef565b505b50905061012b919061012f565b5090565b5b80821115610148576000816000905550600101610130565b5090565b6102cc8061015b6000396000f3fe608060405234801561001057600080fd5b50600436106100415760003560e01c806368b5f223146100465780637ce418941461005057806380d2c8031461005a575b600080fd5b61004e610078565b005b6100586100cf565b005b610062610120565b60405161006f91906101a1565b60405180910390f35b60005b600a8110156100cc5760008082600a8110610099576100986101bc565b5b602091828204019190066101000a81548160ff021916908360ff16021790555080806100c49061021a565b91505061007b565b50565b60005b600a81101561011d5760008082600a81106100f0576100ef6101bc565b5b602091828204019190066101000a81548160ff021916908360ff16021790555080806001019150506100d2565b50565b6000806000905060005b600a81101561018057600081600a8110610147576101466101bc565b5b602091828204019190069054906101000a900460ff1660ff168261016b9190610262565b915080806101789061021a565b91505061012a565b508091505090565b6000819050919050565b61019b81610188565b82525050565b60006020820190506101b66000830184610192565b92915050565b7f4e487b7100000000000000000000000000000000000000000000000000000000600052603260045260246000fd5b7f4e487b7100000000000000000000000000000000000000000000000000000000600052601160045260246000fd5b600061022582610188565b91507fffffffffffffffffffffffffffffffffffffffffffffffffffffffffffffffff8203610257576102566101eb565b5b600182019050919050565b600061026d82610188565b915061027883610188565b92508282019050808211156102905761028f6101eb565b5b9291505056fea26469706673582212201beb8ad613eb5b74196f99af082ad92a070f2d06dbb7984221f82eabbfcf1b7664736f6c63430008120033",
  "linkReferences": {},
  "deployedLinkReferences": {}
}